:030000000202B346
:0C02B300787FE4F6D8FD75813F0202FA66
:10059900E4FEC2B6EF1392B4EFC313FFD2B60EBE98
:0205A90008F058
:0105AB00222D
:10044600C2B600C2B500D2B500120599E4FFD2B615
:1004560000EDC313FDC2B60030B4034305800FBFE1
:0A04660008ECC2B500C2B400AF05F7
:010470002269
:10051800C2B600C2B500D2B500120599AF051205E2
:0805280099C2B500D2B6002211
:1003BC00E4FC74292CF8E6FF75F00A84FEEF75F066
:1003CC000A84A6F0EEC454F0FF74292CF8EF26F63C
:1003DC000CBC07DEE4FD7F8E120518E4FC74302C97
:1003EC00F8E6FF74292CF8E6FD1205180CBC07ED95
:0703FC007D807F8E020518D1
:10053000E4FC74222CF8E6FF12044674292CF8A679
:05054000070CBC08EDF2
:010545002293
:0805CA00000000000000002207
:0505D200D2A0D2A1221D
:10057100D2A01205CAD2A11205CAC2A01205CAC2CE
:04058100A10205CA04
:0F05AC00C2A01205CAD2A11205CAD2A00205CA66
:0304AF00120471C3
:1004B200D2A11205CAD392A0E508C394C85004057C
:0804C2000880F2C2A10205CA84
:0F05BB00D2A11205CAD2A01205CAC2A10205CA56
:10047100E4FEC2A11205CAEF3392A0EF25E0FFD23C
:10048100A11205CAC2A11205CA0EBE08E5D2A00278
:0204910005CA9A
:1004CA00E4FED2A11205CAA2A0E433FDEF25E04D55
:0A04DA00FFC2A11205CA0EBE08E819
:0104E40022F5
:1004E500AE07AC031205711204AFAF051204AFAF2E
:0A04F500041204711205BB0205ACED
:10055C001205717F911204711204B21204CA1205B1
:04056C00BB1205AC0D
:010570002268
:100546001205717F901204711204B27F4012047179
:060556001205BB0205AC1A
:100585003F065B4F666D7D077F6F4000FEFDFBF705
:04059500EFDFBF7F56
:1004930007290D0C0B1E081E1E07308C8A888684C4
:0B04A300828007228D8B898785838172
:0404FF007FC87E0034
:10050300D3EF9400EE9400400B7D13DDFEEF1F70DC
:04051300EF1E80EC6B
:0105170022C1
:10033F00300231E52DC4540FF538E52D540FF53942
:10034F00753A0AE52EC4540FF53BE52E540FF53CD4
:10035F00753D0BE52175F00A84F53EE52175F00A30
:10036F008485F03F20022375380A75390AE5377501
:10037F00F00A84F53AE53775F00A8485F03B753C51
:10038F000B753D0B753E0B753F0BE4FC74382CF869
:10039F00E690058593F580EC90059193F5A07F1479
:0C03AF007E00120503E4F5800CBC08E0A1
:0103BB00221F
:1001D6002090101204FF20900AB20120900512030D
:1001E6003F80F830016AC2B2D2B32091101204FFE8
:1001F60020910AB20220910512033F80F8200226C0
:100206002092101204FF20920A053720920512034D
:100216003F80F82093101204FF20930A153720938D
:100226000512033F80F8E537D394635007E537C3DB
:1002360094005003E4F537300216AB377D017FA0FA
:100246001204E5E521C395375004C2B18002D2B14C
:10025600200159D2B2C2B32091101204FF20910A94
:10026600B20020910512033F80F82092101204FF7D
:1002760020920AC2B120920512033F80F820931003
:100286001204FF20930AD2B120930512033F80F88F
:10029600300019E521C395375012C2B07F057E00A4
:0D02A600120503D2B07F057E001205032271
:100403001205D21203BC7B327D017FA01204E512D8
:100413000546753732D200D2B1D202D2011205306D
:1004230012055C8F21AC21E41201137B427ACF7950
:10043300C6783E1200031201478F211201D6120320
:030443003F80DA1D
:10000300EC4D6011E8497017ED33EC3304600DE4F7
:10001300FCFFFEFD22E933E8330470F80201B3125A
:10002300017E58046009E4CC24815006285009025B
:1000330001BD2840030201BAC0E0EB4A7044B98015
:1000430006D0E0FB0201A9EF4E701CBD8008EBFF58
:10005300EAFEE9FD80EBE98DF0A4FEE5F00200EC99
:10006300E9CDF9EAFEEBFFEF89F0A4FCE5F0CE89D8
:10007300F0A42EFFE435F0CD89F0A42DFEE435F095
:100083008067EF4E7005BD80D780C3EF8BF0A4ACC3
:10009300F0EE8BF0A42CFCE435F0F8EF8AF0A42CFE
:1000A300E5F038FCE433CB8DF0A42CFCE5F03BF811
:1000B300EE8AF0A42CFCE5F038F8E433CF89F0A401
:1000C3002CFCE5F038CF3400CE89F0A42FFFE5F007
:1000D3003EFEE433C98DF0A42EFEE5F039CD8AF05F
:1000E300A42FFFE5F03EFEE43DFD33D0E0FB5007D7
:1000F3000BBB000F0201BDEC2CFCEF33FFEE33FE14
:06010300ED33FD02019541
:1001090075F020800E75F010800575F0087D007E71
:10011900007F003392D530D5031201C8EC3340106B
:10012900EF33FFEE33FEED33FDEC33FCD5F0ED227A
:0E013900E5F0247EA2D513CC92E7CDCEFF22B6
:10014700EDD2E7CD33EC3392D524814006E4FFFEB0
:10015700FDFC22FCE4CFCECDCC24E0501174FF800F
:10016700EDC3CC13CCCD13CDCE13CECF13CF0470AC
:07017700F030D5DE0201C8E3
:10017E00E9D2E7C933E833F892D5EDD2E7CD33ECC7
:07018E0033FC5002B2D52240
:10019500EC30E7100FBF000C0EBE00080DBD0004CB
:1001A5000BEB6014A2D5EB13FCED92E7FD2274FF77
:1001B500FCFDFEFF22E480F8A2D574FF13FC7D80D0
:0301C500E480EFE4
:1002BF00020403E493A3F8E493A34003F68001F24E
:1002CF0008DFF48029E493A3F85407240CC8C33340
:1002DF00C4540F4420C8834004F456800146F6DF0F
:1002EF00E4800B0102040810204080900493E47E08
:1002FF00019360BCA3FF543F30E509541FFEE49304
:10030F00A360010ECF54C025E060A840B8E493A3CA
:10031F00FAE493A3F8E493A3C8C582C8CAC583CAF5
:10032F00F0A3C8C582C8CAC583CADFE9DEE780BEAD
:0104AE00004D
:0E01C800C3E49FFFE49EFEE49DFDE49CFC2248
:00000001FF
